{
  "contractName": "YikeCoin",
  "abi": [
    {
      "inputs": [
        {
          "internalType": "string",
          "name": "_phrase1",
          "type": "string"
        },
        {
          "internalType": "string",
          "name": "_phrase2",
          "type": "string"
        }
      ],
      "stateMutability": "nonpayable",
      "type": "constructor"
    },
    {
      "anonymous": false,
      "inputs": [
        {
          "indexed": true,
          "internalType": "address",
          "name": "owner",
          "type": "address"
        },
        {
          "indexed": true,
          "internalType": "address",
          "name": "spender",
          "type": "address"
        },
        {
          "indexed": false,
          "internalType": "uint256",
          "name": "value",
          "type": "uint256"
        }
      ],
      "name": "Approval",
      "type": "event"
    },
    {
      "anonymous": false,
      "inputs": [
        {
          "indexed": true,
          "internalType": "address",
          "name": "from",
          "type": "address"
        },
        {
          "indexed": true,
          "internalType": "address",
          "name": "to",
          "type": "address"
        },
        {
          "indexed": false,
          "internalType": "uint256",
          "name": "value",
          "type": "uint256"
        }
      ],
      "name": "Transfer",
      "type": "event"
    },
    {
      "inputs": [
        {
          "internalType": "address",
          "name": "owner",
          "type": "address"
        },
        {
          "internalType": "address",
          "name": "spender",
          "type": "address"
        }
      ],
      "name": "allowance",
      "outputs": [
        {
          "internalType": "uint256",
          "name": "",
          "type": "uint256"
        }
      ],
      "stateMutability": "view",
      "type": "function"
    },
    {
      "inputs": [],
      "name": "answer",
      "outputs": [
        {
          "internalType": "bytes32",
          "name": "",
          "type": "bytes32"
        }
      ],
      "stateMutability": "view",
      "type": "function"
    },
    {
      "inputs": [
        {
          "internalType": "address",
          "name": "spender",
          "type": "address"
        },
        {
          "internalType": "uint256",
          "name": "amount",
          "type": "uint256"
        }
      ],
      "name": "approve",
      "outputs": [
        {
          "internalType": "bool",
          "name": "",
          "type": "bool"
        }
      ],
      "stateMutability": "nonpayable",
      "type": "function"
    },
    {
      "inputs": [
        {
          "internalType": "address",
          "name": "account",
          "type": "address"
        }
      ],
      "name": "balanceOf",
      "outputs": [
        {
          "internalType": "uint256",
          "name": "",
          "type": "uint256"
        }
      ],
      "stateMutability": "view",
      "type": "function"
    },
    {
      "inputs": [],
      "name": "decimals",
      "outputs": [
        {
          "internalType": "uint8",
          "name": "",
          "type": "uint8"
        }
      ],
      "stateMutability": "view",
      "type": "function"
    },
    {
      "inputs": [
        {
          "internalType": "address",
          "name": "spender",
          "type": "address"
        },
        {
          "internalType": "uint256",
          "name": "subtractedValue",
          "type": "uint256"
        }
      ],
      "name": "decreaseAllowance",
      "outputs": [
        {
          "internalType": "bool",
          "name": "",
          "type": "bool"
        }
      ],
      "stateMutability": "nonpayable",
      "type": "function"
    },
    {
      "inputs": [
        {
          "internalType": "address",
          "name": "spender",
          "type": "address"
        },
        {
          "internalType": "uint256",
          "name": "addedValue",
          "type": "uint256"
        }
      ],
      "name": "increaseAllowance",
      "outputs": [
        {
          "internalType": "bool",
          "name": "",
          "type": "bool"
        }
      ],
      "stateMutability": "nonpayable",
      "type": "function"
    },
    {
      "inputs": [],
      "name": "name",
      "outputs": [
        {
          "internalType": "string",
          "name": "",
          "type": "string"
        }
      ],
      "stateMutability": "view",
      "type": "function"
    },
    {
      "inputs": [],
      "name": "prize",
      "outputs": [
        {
          "internalType": "uint256",
          "name": "",
          "type": "uint256"
        }
      ],
      "stateMutability": "view",
      "type": "function"
    },
    {
      "inputs": [],
      "name": "symbol",
      "outputs": [
        {
          "internalType": "string",
          "name": "",
          "type": "string"
        }
      ],
      "stateMutability": "view",
      "type": "function"
    },
    {
      "inputs": [],
      "name": "totalSupply",
      "outputs": [
        {
          "internalType": "uint256",
          "name": "",
          "type": "uint256"
        }
      ],
      "stateMutability": "view",
      "type": "function"
    },
    {
      "inputs": [
        {
          "internalType": "address",
          "name": "recipient",
          "type": "address"
        },
        {
          "internalType": "uint256",
          "name": "amount",
          "type": "uint256"
        }
      ],
      "name": "transfer",
      "outputs": [
        {
          "internalType": "bool",
          "name": "",
          "type": "bool"
        }
      ],
      "stateMutability": "nonpayable",
      "type": "function"
    },
    {
      "inputs": [
        {
          "internalType": "address",
          "name": "sender",
          "type": "address"
        },
        {
          "internalType": "address",
          "name": "recipient",
          "type": "address"
        },
        {
          "internalType": "uint256",
          "name": "amount",
          "type": "uint256"
        }
      ],
      "name": "transferFrom",
      "outputs": [
        {
          "internalType": "bool",
          "name": "",
          "type": "bool"
        }
      ],
      "stateMutability": "nonpayable",
      "type": "function"
    },
    {
      "inputs": [
        {
          "internalType": "string",
          "name": "_phrase1",
          "type": "string"
        },
        {
          "internalType": "string",
          "name": "_phrase2",
          "type": "string"
        }
      ],
      "name": "solve",
      "outputs": [],
      "stateMutability": "nonpayable",
      "type": "function"
    }
  ],
  "bytecode": "0x60806040523480156200001157600080fd5b506040516200223438038062002234833981810160405281019062000037919062000456565b6040518060400160405280600881526020017f59696b65436f696e0000000000000000000000000000000000000000000000008152506040518060400160405280600481526020017f59494b45000000000000000000000000000000000000000000000000000000008152508160039080519060200190620000bb92919062000328565b508060049080519060200190620000d492919062000328565b5050506200011830620000ec6200015d60201b60201c565b60ff16600a620000fd919062000727565b6103e86200010c919062000864565b6200016660201b60201c565b6103e86200012b620002df60201b60201c565b62000137919062000694565b6006819055506200014f8282620002e960201b60201c565b600581905550505062000a88565b60006012905090565b600073ffffffffffffffffffffffffffffffffffffffff168273ffffffffffffffffffffffffffffffffffffffff161415620001d9576040517f08c379a0000000000000000000000000000000000000000000000000000000008152600401620001d09062000572565b60405180910390fd5b620001ed600083836200031e60201b60201c565b806002600082825462000201919062000637565b92505081905550806000808473ffffffffffffffffffffffffffffffffffffffff1673ffffffffffffffffffffffffffffffffffffffff168152602001908152602001600020600082825462000258919062000637565b925050819055508173ffffffffffffffffffffffffffffffffffffffff16600073ffffffffffffffffffffffffffffffffffffffff167fddf252ad1be2c89b69c2b068fc378daa952ba7f163c4a11628f55a4df523b3ef83604051620002bf919062000594565b60405180910390a3620002db600083836200032360201b60201c565b5050565b6000600254905090565b60008282604051602001620003009291906200054a565b60405160208183030381529060405280519060200120905092915050565b505050565b505050565b828054620003369062000905565b90600052602060002090601f0160209004810192826200035a5760008555620003a6565b82601f106200037557805160ff1916838001178555620003a6565b82800160010185558215620003a6579182015b82811115620003a557825182559160200191906001019062000388565b5b509050620003b59190620003b9565b5090565b5b80821115620003d4576000816000905550600101620003ba565b5090565b6000620003ef620003e984620005da565b620005b1565b9050828152602081018484840111156200040e576200040d62000a32565b5b6200041b848285620008cf565b509392505050565b600082601f8301126200043b576200043a62000a2d565b5b81516200044d848260208601620003d8565b91505092915050565b6000806040838503121562000470576200046f62000a3c565b5b600083015167ffffffffffffffff81111562000491576200049062000a37565b5b6200049f8582860162000423565b925050602083015167ffffffffffffffff811115620004c357620004c262000a37565b5b620004d18582860162000423565b9150509250929050565b6000620004e88262000610565b620004f481856200062c565b935062000506818560208601620008cf565b80840191505092915050565b600062000521601f836200061b565b91506200052e8262000a5f565b602082019050919050565b6200054481620008c5565b82525050565b6000620005588285620004db565b9150620005668284620004db565b91508190509392505050565b600060208201905081810360008301526200058d8162000512565b9050919050565b6000602082019050620005ab600083018462000539565b92915050565b6000620005bd620005d0565b9050620005cb82826200093b565b919050565b6000604051905090565b600067ffffffffffffffff821115620005f857620005f7620009fe565b5b620006038262000a41565b9050602081019050919050565b600081519050919050565b600082825260208201905092915050565b600081905092915050565b60006200064482620008c5565b91506200065183620008c5565b9250827fffffffffffffffffffffffffffffffffffffffffffffffffffffffffffffffff0382111562000689576200068862000971565b5b828201905092915050565b6000620006a182620008c5565b9150620006ae83620008c5565b925082620006c157620006c0620009a0565b5b828204905092915050565b6000808291508390505b60018511156200071e57808604811115620006f657620006f562000971565b5b6001851615620007065780820291505b8081029050620007168562000a52565b9450620006d6565b94509492505050565b60006200073482620008c5565b91506200074183620008c5565b9250620007707fffffffffffffffffffffffffffffffffffffffffffffffffffffffffffffffff848462000778565b905092915050565b6000826200078a57600190506200085d565b816200079a57600090506200085d565b8160018114620007b35760028114620007be57620007f4565b60019150506200085d565b60ff841115620007d357620007d262000971565b5b8360020a915084821115620007ed57620007ec62000971565b5b506200085d565b5060208310610133831016604e8410600b84101617156200082e5782820a90508381111562000828576200082762000971565b5b6200085d565b6200083d8484846001620006cc565b9250905081840481111562000857576200085662000971565b5b81810290505b9392505050565b60006200087182620008c5565b91506200087e83620008c5565b9250817fffffffffffffffffffffffffffffffffffffffffffffffffffffffffffffffff0483118215151615620008ba57620008b962000971565b5b828202905092915050565b6000819050919050565b60005b83811015620008ef578082015181840152602081019050620008d2565b83811115620008ff576000848401525b50505050565b600060028204905060018216806200091e57607f821691505b60208210811415620009355762000934620009cf565b5b50919050565b620009468262000a41565b810181811067ffffffffffffffff82111715620009685762000967620009fe565b5b80604052505050565b7f4e487b7100000000000000000000000000000000000000000000000000000000600052601160045260246000fd5b7f4e487b7100000000000000000000000000000000000000000000000000000000600052601260045260246000fd5b7f4e487b7100000000000000000000000000000000000000000000000000000000600052602260045260246000fd5b7f4e487b7100000000000000000000000000000000000000000000000000000000600052604160045260246000fd5b600080fd5b600080fd5b600080fd5b600080fd5b6000601f19601f8301169050919050565b60008160011c9050919050565b7f45524332303a206d696e7420746f20746865207a65726f206164647265737300600082015250565b61179c8062000a986000396000f3fe608060405234801561001057600080fd5b50600436106100ea5760003560e01c806385bb7d691161008c578063a86a6dc911610066578063a86a6dc914610275578063a9059cbb14610291578063dd62ed3e146102c1578063e3ac5d26146102f1576100ea565b806385bb7d691461020957806395d89b4114610227578063a457c2d714610245576100ea565b806323b872dd116100c857806323b872dd1461015b578063313ce5671461018b57806339509351146101a957806370a08231146101d9576100ea565b806306fdde03146100ef578063095ea7b31461010d57806318160ddd1461013d575b600080fd5b6100f761030f565b6040516101049190611105565b60405180910390f35b61012760048036038101906101229190610e35565b6103a1565b60405161013491906110cf565b60405180910390f35b6101456103bf565b6040516101529190611227565b60405180910390f35b61017560048036038101906101709190610de2565b6103c9565b60405161018291906110cf565b60405180910390f35b6101936104c1565b6040516101a09190611242565b60405180910390f35b6101c360048036038101906101be9190610e35565b6104ca565b6040516101d091906110cf565b60405180910390f35b6101f360048036038101906101ee9190610d75565b610576565b6040516102009190611227565b60405180910390f35b6102116105be565b60405161021e91906110ea565b60405180910390f35b61022f6105c4565b60405161023c9190611105565b60405180910390f35b61025f600480360381019061025a9190610e35565b610656565b60405161026c91906110cf565b60405180910390f35b61028f600480360381019061028a9190610e75565b610741565b005b6102ab60048036038101906102a69190610e35565b61079f565b6040516102b891906110cf565b60405180910390f35b6102db60048036038101906102d69190610da2565b6107bd565b6040516102e89190611227565b60405180910390f35b6102f9610844565b6040516103069190611227565b60405180910390f35b60606003805461031e906113d1565b80601f016020809104026020016040519081016040528092919081815260200182805461034a906113d1565b80156103975780601f1061036c57610100808354040283529160200191610397565b820191906000526020600020905b81548152906001019060200180831161037a57829003601f168201915b5050505050905090565b60006103b56103ae61084a565b8484610852565b6001905092915050565b6000600254905090565b60006103d6848484610a1d565b6000600160008673ffffffffffffffffffffffffffffffffffffffff1673ffffffffffffffffffffffffffffffffffffffff168152602001908152602001600020600061042161084a565b73ffffffffffffffffffffffffffffffffffffffff1673ffffffffffffffffffffffffffffffffffffffff168152602001908152602001600020549050828110156104a1576040517f08c379a000000000000000000000000000000000000000000000000000000000815260040161049890611187565b60405180910390fd5b6104b5856104ad61084a565b858403610852565b60019150509392505050565b60006012905090565b600061056c6104d761084a565b8484600160006104e561084a565b73ffffffffffffffffffffffffffffffffffffffff1673ffffffffffffffffffffffffffffffffffffffff16815260200190815260200160002060008873ffffffffffffffffffffffffffffffffffffffff1673ffffffffffffffffffffffffffffffffffffffff1681526020019081526020016000205461056791906112da565b610852565b6001905092915050565b60008060008373ffffffffffffffffffffffffffffffffffffffff1673ffffffffffffffffffffffffffffffffffffffff168152602001908152602001600020549050919050565b60055481565b6060600480546105d3906113d1565b80601f01602080910402602001604051908101604052809291908181526020018280546105ff906113d1565b801561064c5780601f106106215761010080835404028352916020019161064c565b820191906000526020600020905b81548152906001019060200180831161062f57829003601f168201915b5050505050905090565b6000806001600061066561084a565b73ffffffffffffffffffffffffffffffffffffffff1673ffffffffffffffffffffffffffffffffffffffff16815260200190815260200160002060008573ffffffffffffffffffffffffffffffffffffffff1673ffffffffffffffffffffffffffffffffffffffff16815260200190815260200160002054905082811015610722576040517f08c379a000000000000000000000000000000000000000000000000000000000815260040161071990611207565b60405180910390fd5b61073661072d61084a565b85858403610852565b600191505092915050565b60055461074e8383610c9e565b1461078e576040517f08c379a0000000000000000000000000000000000000000000000000000000008152600401610785906111e7565b60405180910390fd5b61079b3033600654610a1d565b5050565b60006107b36107ac61084a565b8484610a1d565b6001905092915050565b6000600160008473ffffffffffffffffffffffffffffffffffffffff1673ffffffffffffffffffffffffffffffffffffffff16815260200190815260200160002060008373ffffffffffffffffffffffffffffffffffffffff1673ffffffffffffffffffffffffffffffffffffffff16815260200190815260200160002054905092915050565b60065481565b600033905090565b600073ffffffffffffffffffffffffffffffffffffffff168373ffffffffffffffffffffffffffffffffffffffff1614156108c2576040517f08c379a00000000000000000000000000000000000000000000000000000000081526004016108b9906111c7565b60405180910390fd5b600073ffffffffffffffffffffffffffffffffffffffff168273ffffffffffffffffffffffffffffffffffffffff161415610932576040517f08c379a000000000000000000000000000000000000000000000000000000000815260040161092990611147565b60405180910390fd5b80600160008573ffffffffffffffffffffffffffffffffffffffff1673ffffffffffffffffffffffffffffffffffffffff16815260200190815260200160002060008473ffffffffffffffffffffffffffffffffffffffff1673ffffffffffffffffffffffffffffffffffffffff168152602001908152602001600020819055508173ffffffffffffffffffffffffffffffffffffffff168373ffffffffffffffffffffffffffffffffffffffff167f8c5be1e5ebec7d5bd14f71427d1e84f3dd0314c0f7b2291e5b200ac8c7c3b92583604051610a109190611227565b60405180910390a3505050565b600073ffffffffffffffffffffffffffffffffffffffff168373ffffffffffffffffffffffffffffffffffffffff161415610a8d576040517f08c379a0000000000000000000000000000000000000000000000000000000008152600401610a84906111a7565b60405180910390fd5b600073ffffffffffffffffffffffffffffffffffffffff168273ffffffffffffffffffffffffffffffffffffffff161415610afd576040517f08c379a0000000000000000000000000000000000000000000000000000000008152600401610af490611127565b60405180910390fd5b610b08838383610cd1565b60008060008573ffffffffffffffffffffffffffffffffffffffff1673ffffffffffffffffffffffffffffffffffffffff16815260200190815260200160002054905081811015610b8e576040517f08c379a0000000000000000000000000000000000000000000000000000000008152600401610b8590611167565b60405180910390fd5b8181036000808673ffffffffffffffffffffffffffffffffffffffff1673ffffffffffffffffffffffffffffffffffffffff16815260200190815260200160002081905550816000808573ffffffffffffffffffffffffffffffffffffffff1673ffffffffffffffffffffffffffffffffffffffff1681526020019081526020016000206000828254610c2191906112da565b925050819055508273ffffffffffffffffffffffffffffffffffffffff168473ffffffffffffffffffffffffffffffffffffffff167fddf252ad1be2c89b69c2b068fc378daa952ba7f163c4a11628f55a4df523b3ef84604051610c859190611227565b60405180910390a3610c98848484610cd6565b50505050565b60008282604051602001610cb39291906110ab565b60405160208183030381529060405280519060200120905092915050565b505050565b505050565b6000610cee610ce984611282565b61125d565b905082815260208101848484011115610d0a57610d096114c6565b5b610d1584828561138f565b509392505050565b600081359050610d2c81611738565b92915050565b600082601f830112610d4757610d466114c1565b5b8135610d57848260208601610cdb565b91505092915050565b600081359050610d6f8161174f565b92915050565b600060208284031215610d8b57610d8a6114d0565b5b6000610d9984828501610d1d565b91505092915050565b60008060408385031215610db957610db86114d0565b5b6000610dc785828601610d1d565b9250506020610dd885828601610d1d565b9150509250929050565b600080600060608486031215610dfb57610dfa6114d0565b5b6000610e0986828701610d1d565b9350506020610e1a86828701610d1d565b9250506040610e2b86828701610d60565b9150509250925092565b60008060408385031215610e4c57610e4b6114d0565b5b6000610e5a85828601610d1d565b9250506020610e6b85828601610d60565b9150509250929050565b60008060408385031215610e8c57610e8b6114d0565b5b600083013567ffffffffffffffff811115610eaa57610ea96114cb565b5b610eb685828601610d32565b925050602083013567ffffffffffffffff811115610ed757610ed66114cb565b5b610ee385828601610d32565b9150509250929050565b610ef681611342565b82525050565b610f058161134e565b82525050565b6000610f16826112b3565b610f2081856112be565b9350610f3081856020860161139e565b610f39816114d5565b840191505092915050565b6000610f4f826112b3565b610f5981856112cf565b9350610f6981856020860161139e565b80840191505092915050565b6000610f826023836112be565b9150610f8d826114e6565b604082019050919050565b6000610fa56022836112be565b9150610fb082611535565b604082019050919050565b6000610fc86026836112be565b9150610fd382611584565b604082019050919050565b6000610feb6028836112be565b9150610ff6826115d3565b604082019050919050565b600061100e6025836112be565b915061101982611622565b604082019050919050565b60006110316024836112be565b915061103c82611671565b604082019050919050565b60006110546013836112be565b915061105f826116c0565b602082019050919050565b60006110776025836112be565b9150611082826116e9565b604082019050919050565b61109681611378565b82525050565b6110a581611382565b82525050565b60006110b78285610f44565b91506110c38284610f44565b91508190509392505050565b60006020820190506110e46000830184610eed565b92915050565b60006020820190506110ff6000830184610efc565b92915050565b6000602082019050818103600083015261111f8184610f0b565b905092915050565b6000602082019050818103600083015261114081610f75565b9050919050565b6000602082019050818103600083015261116081610f98565b9050919050565b6000602082019050818103600083015261118081610fbb565b9050919050565b600060208201905081810360008301526111a081610fde565b9050919050565b600060208201905081810360008301526111c081611001565b9050919050565b600060208201905081810360008301526111e081611024565b9050919050565b6000602082019050818103600083015261120081611047565b9050919050565b600060208201905081810360008301526112208161106a565b9050919050565b600060208201905061123c600083018461108d565b92915050565b6000602082019050611257600083018461109c565b92915050565b6000611267611278565b90506112738282611403565b919050565b6000604051905090565b600067ffffffffffffffff82111561129d5761129c611492565b5b6112a6826114d5565b9050602081019050919050565b600081519050919050565b600082825260208201905092915050565b600081905092915050565b60006112e582611378565b91506112f083611378565b9250827fffffffffffffffffffffffffffffffffffffffffffffffffffffffffffffffff0382111561132557611324611434565b5b828201905092915050565b600061133b82611358565b9050919050565b60008115159050919050565b6000819050919050565b600073ffffffffffffffffffffffffffffffffffffffff82169050919050565b6000819050919050565b600060ff82169050919050565b82818337600083830152505050565b60005b838110156113bc5780820151818401526020810190506113a1565b838111156113cb576000848401525b50505050565b600060028204905060018216806113e957607f821691505b602082108114156113fd576113fc611463565b5b50919050565b61140c826114d5565b810181811067ffffffffffffffff8211171561142b5761142a611492565b5b80604052505050565b7f4e487b7100000000000000000000000000000000000000000000000000000000600052601160045260246000fd5b7f4e487b7100000000000000000000000000000000000000000000000000000000600052602260045260246000fd5b7f4e487b7100000000000000000000000000000000000000000000000000000000600052604160045260246000fd5b600080fd5b600080fd5b600080fd5b600080fd5b6000601f19601f8301169050919050565b7f45524332303a207472616e7366657220746f20746865207a65726f206164647260008201527f6573730000000000000000000000000000000000000000000000000000000000602082015250565b7f45524332303a20617070726f766520746f20746865207a65726f20616464726560008201527f7373000000000000000000000000000000000000000000000000000000000000602082015250565b7f45524332303a207472616e7366657220616d6f756e742065786365656473206260008201527f616c616e63650000000000000000000000000000000000000000000000000000602082015250565b7f45524332303a207472616e7366657220616d6f756e742065786365656473206160008201527f6c6c6f77616e6365000000000000000000000000000000000000000000000000602082015250565b7f45524332303a207472616e736665722066726f6d20746865207a65726f20616460008201527f6472657373000000000000000000000000000000000000000000000000000000602082015250565b7f45524332303a20617070726f76652066726f6d20746865207a65726f2061646460008201527f7265737300000000000000000000000000000000000000000000000000000000602082015250565b7f496e76616c696420706173737068726173652100000000000000000000000000600082015250565b7f45524332303a2064656372656173656420616c6c6f77616e63652062656c6f7760008201527f207a65726f000000000000000000000000000000000000000000000000000000602082015250565b61174181611330565b811461174c57600080fd5b50565b61175881611378565b811461176357600080fd5b5056fea2646970667358221220ac84a743f99d97a625985dc7bbe85a5403d1778becf580456cac3e3d2198639564736f6c63430008060033",
  "immutableReferences": {},
  "source": "// SPDX-License-Identifier: MIT\npragma solidity 0.8.6;\n\nimport \"@openzeppelin/contracts/token/ERC20/ERC20.sol\";\n\ncontract YikeCoin is ERC20 {\n    bytes32 public answer;\n    uint256 public prize;\n\n    constructor(string memory _phrase1, string memory _phrase2) ERC20(\"YikeCoin\", \"YIKE\") {\n        _mint(address(this), 1000 * (10 ** uint256(decimals())));\n        prize = totalSupply() / 1000;\n        answer = _hash(_phrase1, _phrase2);\n    }\n\n    function solve(string memory _phrase1, string memory _phrase2) public {\n        // Check if hashed passphrase is correct\n        require(_hash(_phrase1, _phrase2) == answer, \"Invalid passphrase!\");\n        \n        // Transfer 1/1000 of token supply to caller\n        _transfer(address(this), msg.sender, prize);\n    }\n    \n    function _hash(string memory _phrase1, string memory _phrase2) internal pure returns (bytes32) {\n        return keccak256(abi.encodePacked(_phrase1, _phrase2));\n    }\n}",
  "sourcePath": "/Users/eblumenthal/Documents/rex-challenge/contracts/YikeCoin.sol",
  "compiler": {
    "name": "solc",
    "version": "0.8.6+commit.11564f7e.Emscripten.clang"
  },
  "schemaVersion": "3.4.1",
  "updatedAt": "2021-07-06T03:38:47.834Z",
  "devdoc": {
    "kind": "dev",
    "methods": {
      "allowance(address,address)": {
        "details": "See {IERC20-allowance}."
      },
      "approve(address,uint256)": {
        "details": "See {IERC20-approve}. Requirements: - `spender` cannot be the zero address."
      },
      "balanceOf(address)": {
        "details": "See {IERC20-balanceOf}."
      },
      "decimals()": {
        "details": "Returns the number of decimals used to get its user representation. For example, if `decimals` equals `2`, a balance of `505` tokens should be displayed to a user as `5,05` (`505 / 10 ** 2`). Tokens usually opt for a value of 18, imitating the relationship between Ether and Wei. This is the value {ERC20} uses, unless this function is overridden; NOTE: This information is only used for _display_ purposes: it in no way affects any of the arithmetic of the contract, including {IERC20-balanceOf} and {IERC20-transfer}."
      },
      "decreaseAllowance(address,uint256)": {
        "details": "Atomically decreases the allowance granted to `spender` by the caller. This is an alternative to {approve} that can be used as a mitigation for problems described in {IERC20-approve}. Emits an {Approval} event indicating the updated allowance. Requirements: - `spender` cannot be the zero address. - `spender` must have allowance for the caller of at least `subtractedValue`."
      },
      "increaseAllowance(address,uint256)": {
        "details": "Atomically increases the allowance granted to `spender` by the caller. This is an alternative to {approve} that can be used as a mitigation for problems described in {IERC20-approve}. Emits an {Approval} event indicating the updated allowance. Requirements: - `spender` cannot be the zero address."
      },
      "name()": {
        "details": "Returns the name of the token."
      },
      "symbol()": {
        "details": "Returns the symbol of the token, usually a shorter version of the name."
      },
      "totalSupply()": {
        "details": "See {IERC20-totalSupply}."
      },
      "transfer(address,uint256)": {
        "details": "See {IERC20-transfer}. Requirements: - `recipient` cannot be the zero address. - the caller must have a balance of at least `amount`."
      },
      "transferFrom(address,address,uint256)": {
        "details": "See {IERC20-transferFrom}. Emits an {Approval} event indicating the updated allowance. This is not required by the EIP. See the note at the beginning of {ERC20}. Requirements: - `sender` and `recipient` cannot be the zero address. - `sender` must have a balance of at least `amount`. - the caller must have allowance for ``sender``'s tokens of at least `amount`."
      }
    },
    "version": 1
  },
  "userdoc": {
    "kind": "user",
    "methods": {},
    "version": 1
  }
}